{"contracts/SimpleStorage.sol":{"SimpleStorage":{"abi":[{"inputs":[{"internalType":"uint256","name":"_favoriteNumber","type":"uint256"},{"internalType":"string","name":"_name","type":"string"}],"name":"addPeople","outputs":[],"stateMutability":"nonpayable","type":"function"},{"inputs":[],"name":"favoriteNumber","outputs":[{"internalType":"uint256","name":"","type":"uint256"}],"stateMutability":"view","type":"function"},{"inputs":[{"internalType":"uint256","name":"index","type":"uint256"}],"name":"getPerson","outputs":[{"internalType":"string","name":"","type":"string"},{"internalType":"uint256","name":"","type":"uint256"}],"stateMutability":"view","type":"function"},{"inputs":[{"internalType":"string","name":"","type":"string"}],"name":"nameToFavoriteNumber","outputs":[{"internalType":"uint256","name":"","type":"uint256"}],"stateMutability":"view","type":"function"},{"inputs":[{"internalType":"uint256","name":"","type":"uint256"}],"name":"peopleList","outputs":[{"internalType":"uint256","name":"favoriteNumber","type":"uint256"},{"internalType":"string","name":"name","type":"string"}],"stateMutability":"view","type":"function"},{"inputs":[],"name":"retrieve","outputs":[{"internalType":"uint256","name":"","type":"uint256"}],"stateMutability":"view","type":"function"},{"inputs":[{"internalType":"uint256","name":"newFavoriteNumber","type":"uint256"}],"name":"store","outputs":[],"stateMutability":"nonpayable","type":"function"}],"evm":{"bytecode":{"linkReferences":{},"object":"608060405234801561001057600080fd5b50610add806100206000396000f3fe608060405234801561001057600080fd5b506004361061007d5760003560e01c8063471f7cdf1161005b578063471f7cdf146101025780636057361d146101205780638bab8dd51461013c5780638f7d59b81461016c5761007d565b8063246982c4146100825780632e64cec1146100b357806339d515e2146100d1575b600080fd5b61009c60048036038101906100979190610426565b610188565b6040516100aa9291906104f2565b60405180910390f35b6100bb610250565b6040516100c89190610522565b60405180910390f35b6100eb60048036038101906100e69190610426565b610259565b6040516100f992919061053d565b60405180910390f35b61010a610315565b6040516101179190610522565b60405180910390f35b61013a60048036038101906101359190610426565b61031b565b005b610156600480360381019061015191906106a2565b610325565b6040516101639190610522565b60405180910390f35b610186600480360381019061018191906106eb565b610353565b005b6060600080600284815481106101a1576101a0610747565b5b906000526020600020906002020190508060010181600001548180546101c6906107a5565b80601f01602080910402602001604051908101604052809291908181526020018280546101f2906107a5565b801561023f5780601f106102145761010080835404028352916020019161023f565b820191906000526020600020905b81548152906001019060200180831161022257829003601f168201915b505050505091509250925050915091565b60008054905090565b6002818154811061026957600080fd5b9060005260206000209060020201600091509050806000015490806001018054610292906107a5565b80601f01602080910402602001604051908101604052809291908181526020018280546102be906107a5565b801561030b5780601f106102e05761010080835404028352916020019161030b565b820191906000526020600020905b8154815290600101906020018083116102ee57829003601f168201915b5050505050905082565b60005481565b8060008190555050565b6001818051602081018201805184825260208301602085012081835280955050505050506000915090505481565b600260405180604001604052808481526020018381525090806001815401808255809150506001900390600052602060002090600202016000909190919091506000820151816000015560208201518160010190816103b29190610982565b505050816001826040516103c69190610a90565b9081526020016040518091039020819055505050565b6000604051905090565b600080fd5b600080fd5b6000819050919050565b610403816103f0565b811461040e57600080fd5b50565b600081359050610420816103fa565b92915050565b60006020828403121561043c5761043b6103e6565b5b600061044a84828501610411565b91505092915050565b600081519050919050565b600082825260208201905092915050565b60005b8381101561048d578082015181840152602081019050610472565b60008484015250505050565b6000601f19601f8301169050919050565b60006104b582610453565b6104bf818561045e565b93506104cf81856020860161046f565b6104d881610499565b840191505092915050565b6104ec816103f0565b82525050565b6000604082019050818103600083015261050c81856104aa565b905061051b60208301846104e3565b9392505050565b600060208201905061053760008301846104e3565b92915050565b600060408201905061055260008301856104e3565b818103602083015261056481846104aa565b90509392505050565b600080fd5b600080fd5b7f4e487b7100000000000000000000000000000000000000000000000000000000600052604160045260246000fd5b6105af82610499565b810181811067ffffffffffffffff821117156105ce576105cd610577565b5b80604052505050565b60006105e16103dc565b90506105ed82826105a6565b919050565b600067ffffffffffffffff82111561060d5761060c610577565b5b61061682610499565b9050602081019050919050565b82818337600083830152505050565b6000610645610640846105f2565b6105d7565b90508281526020810184848401111561066157610660610572565b5b61066c848285610623565b509392505050565b600082601f8301126106895761068861056d565b5b8135610699848260208601610632565b91505092915050565b6000602082840312156106b8576106b76103e6565b5b600082013567ffffffffffffffff8111156106d6576106d56103eb565b5b6106e284828501610674565b91505092915050565b60008060408385031215610702576107016103e6565b5b600061071085828601610411565b925050602083013567ffffffffffffffff811115610731576107306103eb565b5b61073d85828601610674565b9150509250929050565b7f4e487b7100000000000000000000000000000000000000000000000000000000600052603260045260246000fd5b7f4e487b7100000000000000000000000000000000000000000000000000000000600052602260045260246000fd5b600060028204905060018216806107bd57607f821691505b6020821081036107d0576107cf610776565b5b50919050565b60008190508160005260206000209050919050565b60006020601f8301049050919050565b600082821b905092915050565b6000600883026108387fffffffffffffffffffffffffffffffffffffffffffffffffffffffffffffffff826107fb565b61084286836107fb565b95508019841693508086168417925050509392505050565b6000819050919050565b600061087f61087a610875846103f0565b61085a565b6103f0565b9050919050565b6000819050919050565b61089983610864565b6108ad6108a582610886565b848454610808565b825550505050565b600090565b6108c26108b5565b6108cd818484610890565b505050565b5b818110156108f1576108e66000826108ba565b6001810190506108d3565b5050565b601f82111561093657610907816107d6565b610910846107eb565b8101602085101561091f578190505b61093361092b856107eb565b8301826108d2565b50505b505050565b600082821c905092915050565b60006109596000198460080261093b565b1980831691505092915050565b60006109728383610948565b9150826002028217905092915050565b61098b82610453565b67ffffffffffffffff8111156109a4576109a3610577565b5b6109ae82546107a5565b6109b98282856108f5565b600060209050601f8311600181146109ec57600084156109da578287015190505b6109e48582610966565b865550610a4c565b601f1984166109fa866107d6565b60005b82811015610a22578489015182556001820191506020850194506020810190506109fd565b86831015610a3f5784890151610a3b601f891682610948565b8355505b6001600288020188555050505b505050505050565b600081905092915050565b6000610a6a82610453565b610a748185610a54565b9350610a8481856020860161046f565b80840191505092915050565b6000610a9c8284610a5f565b91508190509291505056fea2646970667358221220b4d3b8da5c5f38a177d4dead37cba26df4fcf04c57f8ff770d71f65d48ef37e364736f6c63430008130033","opcodes":"PUSH1 0x80 PUSH1 0x40 MSTORE CALLVALUE DUP1 ISZERO PUSH2 0x10 JUMPI PUSH1 0x0 DUP1 REVERT JUMPDEST POP PUSH2 0xADD DUP1 PUSH2 0x20 PUSH1 0x0 CODECOPY PUSH1 0x0 RETURN INVALID PUSH1 0x80 PUSH1 0x40 MSTORE CALLVALUE DUP1 ISZERO PUSH2 0x10 JUMPI PUSH1 0x0 DUP1 REVERT JUMPDEST POP PUSH1 0x4 CALLDATASIZE LT PUSH2 0x7D JUMPI PUSH1 0x0 CALLDATALOAD PUSH1 0xE0 SHR DUP1 PUSH4 0x471F7CDF GT PUSH2 0x5B JUMPI DUP1 PUSH4 0x471F7CDF EQ PUSH2 0x102 JUMPI DUP1 PUSH4 0x6057361D EQ PUSH2 0x120 JUMPI DUP1 PUSH4 0x8BAB8DD5 EQ PUSH2 0x13C JUMPI DUP1 PUSH4 0x8F7D59B8 EQ PUSH2 0x16C JUMPI PUSH2 0x7D JUMP JUMPDEST DUP1 PUSH4 0x246982C4 EQ PUSH2 0x82 JUMPI DUP1 PUSH4 0x2E64CEC1 EQ PUSH2 0xB3 JUMPI DUP1 PUSH4 0x39D515E2 EQ PUSH2 0xD1 JUMPI JUMPDEST PUSH1 0x0 DUP1 REVERT JUMPDEST PUSH2 0x9C PUSH1 0x4 DUP1 CALLDATASIZE SUB DUP2 ADD SWAP1 PUSH2 0x97 SWAP2 SWAP1 PUSH2 0x426 JUMP JUMPDEST PUSH2 0x188 JUMP JUMPDEST PUSH1 0x40 MLOAD PUSH2 0xAA SWAP3 SWAP2 SWAP1 PUSH2 0x4F2 JUMP JUMPDEST PUSH1 0x40 MLOAD DUP1 SWAP2 SUB SWAP1 RETURN JUMPDEST PUSH2 0xBB PUSH2 0x250 JUMP JUMPDEST PUSH1 0x40 MLOAD PUSH2 0xC8 SWAP2 SWAP1 PUSH2 0x522 JUMP JUMPDEST PUSH1 0x40 MLOAD DUP1 SWAP2 SUB SWAP1 RETURN JUMPDEST PUSH2 0xEB PUSH1 0x4 DUP1 CALLDATASIZE SUB DUP2 ADD SWAP1 PUSH2 0xE6 SWAP2 SWAP1 PUSH2 0x426 JUMP JUMPDEST PUSH2 0x259 JUMP JUMPDEST PUSH1 0x40 MLOAD PUSH2 0xF9 SWAP3 SWAP2 SWAP1 PUSH2 0x53D JUMP JUMPDEST PUSH1 0x40 MLOAD DUP1 SWAP2 SUB SWAP1 RETURN JUMPDEST PUSH2 0x10A PUSH2 0x315 JUMP JUMPDEST PUSH1 0x40 MLOAD PUSH2 0x117 SWAP2 SWAP1 PUSH2 0x522 JUMP JUMPDEST PUSH1 0x40 MLOAD DUP1 SWAP2 SUB SWAP1 RETURN JUMPDEST PUSH2 0x13A PUSH1 0x4 DUP1 CALLDATASIZE SUB DUP2 ADD SWAP1 PUSH2 0x135 SWAP2 SWAP1 PUSH2 0x426 JUMP JUMPDEST PUSH2 0x31B JUMP JUMPDEST STOP JUMPDEST PUSH2 0x156 PUSH1 0x4 DUP1 CALLDATASIZE SUB DUP2 ADD SWAP1 PUSH2 0x151 SWAP2 SWAP1 PUSH2 0x6A2 JUMP JUMPDEST PUSH2 0x325 JUMP JUMPDEST PUSH1 0x40 MLOAD PUSH2 0x163 SWAP2 SWAP1 PUSH2 0x522 JUMP JUMPDEST PUSH1 0x40 MLOAD DUP1 SWAP2 SUB SWAP1 RETURN JUMPDEST PUSH2 0x186 PUSH1 0x4 DUP1 CALLDATASIZE SUB DUP2 ADD SWAP1 PUSH2 0x181 SWAP2 SWAP1 PUSH2 0x6EB JUMP JUMPDEST PUSH2 0x353 JUMP JUMPDEST STOP JUMPDEST PUSH1 0x60 PUSH1 0x0 DUP1 PUSH1 0x2 DUP5 DUP2 SLOAD DUP2 LT PUSH2 0x1A1 JUMPI PUSH2 0x1A0 PUSH2 0x747 JUMP JUMPDEST JUMPDEST SWAP1 PUSH1 0x0 MSTORE PUSH1 0x20 PUSH1 0x0 KECCAK256 SWAP1 PUSH1 0x2 MUL ADD SWAP1 POP DUP1 PUSH1 0x1 ADD DUP2 PUSH1 0x0 ADD SLOAD DUP2 DUP1 SLOAD PUSH2 0x1C6 SWAP1 PUSH2 0x7A5 JUMP JUMPDEST DUP1 PUSH1 0x1F ADD PUSH1 0x20 DUP1 SWAP2 DIV MUL PUSH1 0x20 ADD PUSH1 0x40 MLOAD SWAP1 DUP2 ADD PUSH1 0x40 MSTORE DUP1 SWAP3 SWAP2 SWAP1 DUP2 DUP2 MSTORE PUSH1 0x20 ADD DUP3 DUP1 SLOAD PUSH2 0x1F2 SWAP1 PUSH2 0x7A5 JUMP JUMPDEST DUP1 ISZERO PUSH2 0x23F JUMPI DUP1 PUSH1 0x1F LT PUSH2 0x214 JUMPI PUSH2 0x100 DUP1 DUP4 SLOAD DIV MUL DUP4 MSTORE SWAP2 PUSH1 0x20 ADD SWAP2 PUSH2 0x23F JUMP JUMPDEST DUP3 ADD SWAP2 SWAP1 PUSH1 0x0 MSTORE PUSH1 0x20 PUSH1 0x0 KECCAK256 SWAP1 JUMPDEST DUP2 SLOAD DUP2 MSTORE SWAP1 PUSH1 0x1 ADD SWAP1 PUSH1 0x20 ADD DUP1 DUP4 GT PUSH2 0x222 JUMPI DUP3 SWAP1 SUB PUSH1 0x1F AND DUP3 ADD SWAP2 JUMPDEST POP POP POP POP POP SWAP2 POP SWAP3 POP SWAP3 POP POP SWAP2 POP SWAP2 JUMP JUMPDEST PUSH1 0x0 DUP1 SLOAD SWAP1 POP SWAP1 JUMP JUMPDEST PUSH1 0x2 DUP2 DUP2 SLOAD DUP2 LT PUSH2 0x269 JUMPI PUSH1 0x0 DUP1 REVERT JUMPDEST SWAP1 PUSH1 0x0 MSTORE PUSH1 0x20 PUSH1 0x0 KECCAK256 SWAP1 PUSH1 0x2 MUL ADD PUSH1 0x0 SWAP2 POP SWAP1 POP DUP1 PUSH1 0x0 ADD SLOAD SWAP1 DUP1 PUSH1 0x1 ADD DUP1 SLOAD PUSH2 0x292 SWAP1 PUSH2 0x7A5 JUMP JUMPDEST DUP1 PUSH1 0x1F ADD PUSH1 0x20 DUP1 SWAP2 DIV MUL PUSH1 0x20 ADD PUSH1 0x40 MLOAD SWAP1 DUP2 ADD PUSH1 0x40 MSTORE DUP1 SWAP3 SWAP2 SWAP1 DUP2 DUP2 MSTORE PUSH1 0x20 ADD DUP3 DUP1 SLOAD PUSH2 0x2BE SWAP1 PUSH2 0x7A5 JUMP JUMPDEST DUP1 ISZERO PUSH2 0x30B JUMPI DUP1 PUSH1 0x1F LT PUSH2 0x2E0 JUMPI PUSH2 0x100 DUP1 DUP4 SLOAD DIV MUL DUP4 MSTORE SWAP2 PUSH1 0x20 ADD SWAP2 PUSH2 0x30B JUMP JUMPDEST DUP3 ADD SWAP2 SWAP1 PUSH1 0x0 MSTORE PUSH1 0x20 PUSH1 0x0 KECCAK256 SWAP1 JUMPDEST DUP2 SLOAD DUP2 MSTORE SWAP1 PUSH1 0x1 ADD SWAP1 PUSH1 0x20 ADD DUP1 DUP4 GT PUSH2 0x2EE JUMPI DUP3 SWAP1 SUB PUSH1 0x1F AND DUP3 ADD SWAP2 JUMPDEST POP POP POP POP POP SWAP1 POP DUP3 JUMP JUMPDEST PUSH1 0x0 SLOAD DUP2 JUMP JUMPDEST DUP1 PUSH1 0x0 DUP2 SWAP1 SSTORE POP POP JUMP JUMPDEST PUSH1 0x1 DUP2 DUP1 MLOAD PUSH1 0x20 DUP2 ADD DUP3 ADD DUP1 MLOAD DUP5 DUP3 MSTORE PUSH1 0x20 DUP4 ADD PUSH1 0x20 DUP6 ADD KECCAK256 DUP2 DUP4 MSTORE DUP1 SWAP6 POP POP POP POP POP POP PUSH1 0x0 SWAP2 POP SWAP1 POP SLOAD DUP2 JUMP JUMPDEST PUSH1 0x2 PUSH1 0x40 MLOAD DUP1 PUSH1 0x40 ADD PUSH1 0x40 MSTORE DUP1 DUP5 DUP2 MSTORE PUSH1 0x20 ADD DUP4 DUP2 MSTORE POP SWAP1 DUP1 PUSH1 0x1 DUP2 SLOAD ADD DUP1 DUP3 SSTORE DUP1 SWAP2 POP POP PUSH1 0x1 SWAP1 SUB SWAP1 PUSH1 0x0 MSTORE PUSH1 0x20 PUSH1 0x0 KECCAK256 SWAP1 PUSH1 0x2 MUL ADD PUSH1 0x0 SWAP1 SWAP2 SWAP1 SWAP2 SWAP1 SWAP2 POP PUSH1 0x0 DUP3 ADD MLOAD DUP2 PUSH1 0x0 ADD SSTORE PUSH1 0x20 DUP3 ADD MLOAD DUP2 PUSH1 0x1 ADD SWAP1 DUP2 PUSH2 0x3B2 SWAP2 SWAP1 PUSH2 0x982 JUMP JUMPDEST POP POP POP DUP2 PUSH1 0x1 DUP3 PUSH1 0x40 MLOAD PUSH2 0x3C6 SWAP2 SWAP1 PUSH2 0xA90 JUMP JUMPDEST SWAP1 DUP2 MSTORE PUSH1 0x20 ADD PUSH1 0x40 MLOAD DUP1 SWAP2 SUB SWAP1 KECCAK256 DUP2 SWAP1 SSTORE POP POP POP JUMP JUMPDEST PUSH1 0x0 PUSH1 0x40 MLOAD SWAP1 POP SWAP1 JUMP JUMPDEST PUSH1 0x0 DUP1 REVERT JUMPDEST PUSH1 0x0 DUP1 REVERT JUMPDEST PUSH1 0x0 DUP2 SWAP1 POP SWAP2 SWAP1 POP JUMP JUMPDEST PUSH2 0x403 DUP2 PUSH2 0x3F0 JUMP JUMPDEST DUP2 EQ PUSH2 0x40E JUMPI PUSH1 0x0 DUP1 REVERT JUMPDEST POP JUMP JUMPDEST PUSH1 0x0 DUP2 CALLDATALOAD SWAP1 POP PUSH2 0x420 DUP2 PUSH2 0x3FA JUMP JUMPDEST SWAP3 SWAP2 POP POP JUMP JUMPDEST PUSH1 0x0 PUSH1 0x20 DUP3 DUP5 SUB SLT ISZERO PUSH2 0x43C JUMPI PUSH2 0x43B PUSH2 0x3E6 JUMP JUMPDEST JUMPDEST PUSH1 0x0 PUSH2 0x44A DUP5 DUP3 DUP6 ADD PUSH2 0x411 JUMP JUMPDEST SWAP2 POP POP SWAP3 SWAP2 POP POP JUMP JUMPDEST PUSH1 0x0 DUP2 MLOAD SWAP1 POP SWAP2 SWAP1 POP JUMP JUMPDEST PUSH1 0x0 DUP3 DUP3 MSTORE PUSH1 0x20 DUP3 ADD SWAP1 POP SWAP3 SWAP2 POP POP JUMP JUMPDEST PUSH1 0x0 JUMPDEST DUP4 DUP2 LT ISZERO PUSH2 0x48D JUMPI DUP1 DUP3 ADD MLOAD DUP2 DUP5 ADD MSTORE PUSH1 0x20 DUP2 ADD SWAP1 POP PUSH2 0x472 JUMP JUMPDEST PUSH1 0x0 DUP5 DUP5 ADD MSTORE POP POP POP POP JUMP JUMPDEST PUSH1 0x0 PUSH1 0x1F NOT PUSH1 0x1F DUP4 ADD AND SWAP1 POP SWAP2 SWAP1 POP JUMP JUMPDEST PUSH1 0x0 PUSH2 0x4B5 DUP3 PUSH2 0x453 JUMP JUMPDEST PUSH2 0x4BF DUP2 DUP6 PUSH2 0x45E JUMP JUMPDEST SWAP4 POP PUSH2 0x4CF DUP2 DUP6 PUSH1 0x20 DUP7 ADD PUSH2 0x46F JUMP JUMPDEST PUSH2 0x4D8 DUP2 PUSH2 0x499 JUMP JUMPDEST DUP5 ADD SWAP2 POP POP SWAP3 SWAP2 POP POP JUMP JUMPDEST PUSH2 0x4EC DUP2 PUSH2 0x3F0 JUMP JUMPDEST DUP3 MSTORE POP POP JUMP JUMPDEST PUSH1 0x0 PUSH1 0x40 DUP3 ADD SWAP1 POP DUP2 DUP2 SUB PUSH1 0x0 DUP4 ADD MSTORE PUSH2 0x50C DUP2 DUP6 PUSH2 0x4AA JUMP JUMPDEST SWAP1 POP PUSH2 0x51B PUSH1 0x20 DUP4 ADD DUP5 PUSH2 0x4E3 JUMP JUMPDEST SWAP4 SWAP3 POP POP POP JUMP JUMPDEST PUSH1 0x0 PUSH1 0x20 DUP3 ADD SWAP1 POP PUSH2 0x537 PUSH1 0x0 DUP4 ADD DUP5 PUSH2 0x4E3 JUMP JUMPDEST SWAP3 SWAP2 POP POP JUMP JUMPDEST PUSH1 0x0 PUSH1 0x40 DUP3 ADD SWAP1 POP PUSH2 0x552 PUSH1 0x0 DUP4 ADD DUP6 PUSH2 0x4E3 JUMP JUMPDEST DUP2 DUP2 SUB PUSH1 0x20 DUP4 ADD MSTORE PUSH2 0x564 DUP2 DUP5 PUSH2 0x4AA JUMP JUMPDEST SWAP1 POP SWAP4 SWAP3 POP POP POP JUMP JUMPDEST PUSH1 0x0 DUP1 REVERT JUMPDEST PUSH1 0x0 DUP1 REVERT JUMPDEST PUSH32 0x4E487B7100000000000000000000000000000000000000000000000000000000 PUSH1 0x0 MSTORE PUSH1 0x41 PUSH1 0x4 MSTORE PUSH1 0x24 PUSH1 0x0 REVERT JUMPDEST PUSH2 0x5AF DUP3 PUSH2 0x499 JUMP JUMPDEST DUP2 ADD DUP2 DUP2 LT PUSH8 0xFFFFFFFFFFFFFFFF DUP3 GT OR ISZERO PUSH2 0x5CE JUMPI PUSH2 0x5CD PUSH2 0x577 JUMP JUMPDEST JUMPDEST DUP1 PUSH1 0x40 MSTORE POP POP POP JUMP JUMPDEST PUSH1 0x0 PUSH2 0x5E1 PUSH2 0x3DC JUMP JUMPDEST SWAP1 POP PUSH2 0x5ED DUP3 DUP3 PUSH2 0x5A6 JUMP JUMPDEST SWAP2 SWAP1 POP JUMP JUMPDEST PUSH1 0x0 PUSH8 0xFFFFFFFFFFFFFFFF DUP3 GT ISZERO PUSH2 0x60D JUMPI PUSH2 0x60C PUSH2 0x577 JUMP JUMPDEST JUMPDEST PUSH2 0x616 DUP3 PUSH2 0x499 JUMP JUMPDEST SWAP1 POP PUSH1 0x20 DUP2 ADD SWAP1 POP SWAP2 SWAP1 POP JUMP JUMPDEST DUP3 DUP2 DUP4 CALLDATACOPY PUSH1 0x0 DUP4 DUP4 ADD MSTORE POP POP POP JUMP JUMPDEST PUSH1 0x0 PUSH2 0x645 PUSH2 0x640 DUP5 PUSH2 0x5F2 JUMP JUMPDEST PUSH2 0x5D7 JUMP JUMPDEST SWAP1 POP DUP3 DUP2 MSTORE PUSH1 0x20 DUP2 ADD DUP5 DUP5 DUP5 ADD GT ISZERO PUSH2 0x661 JUMPI PUSH2 0x660 PUSH2 0x572 JUMP JUMPDEST JUMPDEST PUSH2 0x66C DUP5 DUP3 DUP6 PUSH2 0x623 JUMP JUMPDEST POP SWAP4 SWAP3 POP POP POP JUMP JUMPDEST PUSH1 0x0 DUP3 PUSH1 0x1F DUP4 ADD SLT PUSH2 0x689 JUMPI PUSH2 0x688 PUSH2 0x56D JUMP JUMPDEST JUMPDEST DUP2 CALLDATALOAD PUSH2 0x699 DUP5 DUP3 PUSH1 0x20 DUP7 ADD PUSH2 0x632 JUMP JUMPDEST SWAP2 POP POP SWAP3 SWAP2 POP POP JUMP JUMPDEST PUSH1 0x0 PUSH1 0x20 DUP3 DUP5 SUB SLT ISZERO PUSH2 0x6B8 JUMPI PUSH2 0x6B7 PUSH2 0x3E6 JUMP JUMPDEST JUMPDEST PUSH1 0x0 DUP3 ADD CALLDATALOAD PUSH8 0xFFFFFFFFFFFFFFFF DUP2 GT ISZERO PUSH2 0x6D6 JUMPI PUSH2 0x6D5 PUSH2 0x3EB JUMP JUMPDEST JUMPDEST PUSH2 0x6E2 DUP5 DUP3 DUP6 ADD PUSH2 0x674 JUMP JUMPDEST SWAP2 POP POP SWAP3 SWAP2 POP POP JUMP JUMPDEST PUSH1 0x0 DUP1 PUSH1 0x40 DUP4 DUP6 SUB SLT ISZERO PUSH2 0x702 JUMPI PUSH2 0x701 PUSH2 0x3E6 JUMP JUMPDEST JUMPDEST PUSH1 0x0 PUSH2 0x710 DUP6 DUP3 DUP7 ADD PUSH2 0x411 JUMP JUMPDEST SWAP3 POP POP PUSH1 0x20 DUP4 ADD CALLDATALOAD PUSH8 0xFFFFFFFFFFFFFFFF DUP2 GT ISZERO PUSH2 0x731 JUMPI PUSH2 0x730 PUSH2 0x3EB JUMP JUMPDEST JUMPDEST PUSH2 0x73D DUP6 DUP3 DUP7 ADD PUSH2 0x674 JUMP JUMPDEST SWAP2 POP POP SWAP3 POP SWAP3 SWAP1 POP JUMP JUMPDEST PUSH32 0x4E487B7100000000000000000000000000000000000000000000000000000000 PUSH1 0x0 MSTORE PUSH1 0x32 PUSH1 0x4 MSTORE PUSH1 0x24 PUSH1 0x0 REVERT JUMPDEST PUSH32 0x4E487B7100000000000000000000000000000000000000000000000000000000 PUSH1 0x0 MSTORE PUSH1 0x22 PUSH1 0x4 MSTORE PUSH1 0x24 PUSH1 0x0 REVERT JUMPDEST PUSH1 0x0 PUSH1 0x2 DUP3 DIV SWAP1 POP PUSH1 0x1 DUP3 AND DUP1 PUSH2 0x7BD JUMPI PUSH1 0x7F DUP3 AND SWAP2 POP JUMPDEST PUSH1 0x20 DUP3 LT DUP2 SUB PUSH2 0x7D0 JUMPI PUSH2 0x7CF PUSH2 0x776 JUMP JUMPDEST JUMPDEST POP SWAP2 SWAP1 POP JUMP JUMPDEST PUSH1 0x0 DUP2 SWAP1 POP DUP2 PUSH1 0x0 MSTORE PUSH1 0x20 PUSH1 0x0 KECCAK256 SWAP1 POP SWAP2 SWAP1 POP JUMP JUMPDEST PUSH1 0x0 PUSH1 0x20 PUSH1 0x1F DUP4 ADD DIV SWAP1 POP SWAP2 SWAP1 POP JUMP JUMPDEST PUSH1 0x0 DUP3 DUP3 SHL SWAP1 POP SWAP3 SWAP2 POP POP JUMP JUMPDEST PUSH1 0x0 PUSH1 0x8 DUP4 MUL PUSH2 0x838 PUSH32 0xFFFFFFFFFFFFFFFFFFFFFFFFFFFFFFFFFFFFFFFFFFFFFFFFFFFFFFFFFFFFFFFF DUP3 PUSH2 0x7FB JUMP JUMPDEST PUSH2 0x842 DUP7 DUP4 PUSH2 0x7FB JUMP JUMPDEST SWAP6 POP DUP1 NOT DUP5 AND SWAP4 POP DUP1 DUP7 AND DUP5 OR SWAP3 POP POP POP SWAP4 SWAP3 POP POP POP JUMP JUMPDEST PUSH1 0x0 DUP2 SWAP1 POP SWAP2 SWAP1 POP JUMP JUMPDEST PUSH1 0x0 PUSH2 0x87F PUSH2 0x87A PUSH2 0x875 DUP5 PUSH2 0x3F0 JUMP JUMPDEST PUSH2 0x85A JUMP JUMPDEST PUSH2 0x3F0 JUMP JUMPDEST SWAP1 POP SWAP2 SWAP1 POP JUMP JUMPDEST PUSH1 0x0 DUP2 SWAP1 POP SWAP2 SWAP1 POP JUMP JUMPDEST PUSH2 0x899 DUP4 PUSH2 0x864 JUMP JUMPDEST PUSH2 0x8AD PUSH2 0x8A5 DUP3 PUSH2 0x886 JUMP JUMPDEST DUP5 DUP5 SLOAD PUSH2 0x808 JUMP JUMPDEST DUP3 SSTORE POP POP POP POP JUMP JUMPDEST PUSH1 0x0 SWAP1 JUMP JUMPDEST PUSH2 0x8C2 PUSH2 0x8B5 JUMP JUMPDEST PUSH2 0x8CD DUP2 DUP5 DUP5 PUSH2 0x890 JUMP JUMPDEST POP POP POP JUMP JUMPDEST JUMPDEST DUP2 DUP2 LT ISZERO PUSH2 0x8F1 JUMPI PUSH2 0x8E6 PUSH1 0x0 DUP3 PUSH2 0x8BA JUMP JUMPDEST PUSH1 0x1 DUP2 ADD SWAP1 POP PUSH2 0x8D3 JUMP JUMPDEST POP POP JUMP JUMPDEST PUSH1 0x1F DUP3 GT ISZERO PUSH2 0x936 JUMPI PUSH2 0x907 DUP2 PUSH2 0x7D6 JUMP JUMPDEST PUSH2 0x910 DUP5 PUSH2 0x7EB JUMP JUMPDEST DUP2 ADD PUSH1 0x20 DUP6 LT ISZERO PUSH2 0x91F JUMPI DUP2 SWAP1 POP JUMPDEST PUSH2 0x933 PUSH2 0x92B DUP6 PUSH2 0x7EB JUMP JUMPDEST DUP4 ADD DUP3 PUSH2 0x8D2 JUMP JUMPDEST POP POP JUMPDEST POP POP POP JUMP JUMPDEST PUSH1 0x0 DUP3 DUP3 SHR SWAP1 POP SWAP3 SWAP2 POP POP JUMP JUMPDEST PUSH1 0x0 PUSH2 0x959 PUSH1 0x0 NOT DUP5 PUSH1 0x8 MUL PUSH2 0x93B JUMP JUMPDEST NOT DUP1 DUP4 AND SWAP2 POP POP SWAP3 SWAP2 POP POP JUMP JUMPDEST PUSH1 0x0 PUSH2 0x972 DUP4 DUP4 PUSH2 0x948 JUMP JUMPDEST SWAP2 POP DUP3 PUSH1 0x2 MUL DUP3 OR SWAP1 POP SWAP3 SWAP2 POP POP JUMP JUMPDEST PUSH2 0x98B DUP3 PUSH2 0x453 JUMP JUMPDEST PUSH8 0xFFFFFFFFFFFFFFFF DUP2 GT ISZERO PUSH2 0x9A4 JUMPI PUSH2 0x9A3 PUSH2 0x577 JUMP JUMPDEST JUMPDEST PUSH2 0x9AE DUP3 SLOAD PUSH2 0x7A5 JUMP JUMPDEST PUSH2 0x9B9 DUP3 DUP3 DUP6 PUSH2 0x8F5 JUMP JUMPDEST PUSH1 0x0 PUSH1 0x20 SWAP1 POP PUSH1 0x1F DUP4 GT PUSH1 0x1 DUP2 EQ PUSH2 0x9EC JUMPI PUSH1 0x0 DUP5 ISZERO PUSH2 0x9DA JUMPI DUP3 DUP8 ADD MLOAD SWAP1 POP JUMPDEST PUSH2 0x9E4 DUP6 DUP3 PUSH2 0x966 JUMP JUMPDEST DUP7 SSTORE POP PUSH2 0xA4C JUMP JUMPDEST PUSH1 0x1F NOT DUP5 AND PUSH2 0x9FA DUP7 PUSH2 0x7D6 JUMP JUMPDEST PUSH1 0x0 JUMPDEST DUP3 DUP2 LT ISZERO PUSH2 0xA22 JUMPI DUP5 DUP10 ADD MLOAD DUP3 SSTORE PUSH1 0x1 DUP3 ADD SWAP2 POP PUSH1 0x20 DUP6 ADD SWAP5 POP PUSH1 0x20 DUP2 ADD SWAP1 POP PUSH2 0x9FD JUMP JUMPDEST DUP7 DUP4 LT ISZERO PUSH2 0xA3F JUMPI DUP5 DUP10 ADD MLOAD PUSH2 0xA3B PUSH1 0x1F DUP10 AND DUP3 PUSH2 0x948 JUMP JUMPDEST DUP4 SSTORE POP JUMPDEST PUSH1 0x1 PUSH1 0x2 DUP9 MUL ADD DUP9 SSTORE POP POP POP JUMPDEST POP POP POP POP POP POP JUMP JUMPDEST PUSH1 0x0 DUP2 SWAP1 POP SWAP3 SWAP2 POP POP JUMP JUMPDEST PUSH1 0x0 PUSH2 0xA6A DUP3 PUSH2 0x453 JUMP JUMPDEST PUSH2 0xA74 DUP2 DUP6 PUSH2 0xA54 JUMP JUMPDEST SWAP4 POP PUSH2 0xA84 DUP2 DUP6 PUSH1 0x20 DUP7 ADD PUSH2 0x46F JUMP JUMPDEST DUP1 DUP5 ADD SWAP2 POP POP SWAP3 SWAP2 POP POP JUMP JUMPDEST PUSH1 0x0 PUSH2 0xA9C DUP3 DUP5 PUSH2 0xA5F JUMP JUMPDEST SWAP2 POP DUP2 SWAP1 POP SWAP3 SWAP2 POP POP JUMP INVALID LOG2 PUSH5 0x6970667358 0x22 SLT KECCAK256 0xB4 0xD3 0xB8 0xDA 0x5C 0x5F CODESIZE LOG1 PUSH24 0xD4DEAD37CBA26DF4FCF04C57F8FF770D71F65D48EF37E364 PUSH20 0x6F6C634300081300330000000000000000000000 "},"methodIdentifiers":{"addPeople(uint256,string)":"8f7d59b8","favoriteNumber()":"471f7cdf","getPerson(uint256)":"246982c4","nameToFavoriteNumber(string)":"8bab8dd5","peopleList(uint256)":"39d515e2","retrieve()":"2e64cec1","store(uint256)":"6057361d"}}}}}