{
  "_format": "hh-sol-artifact-1",
  "contractName": "SimpleStorage",
  "sourceName": "contracts/SimpleStorage.sol",
  "abi": [
    {
      "inputs": [
        {
          "internalType": "uint256",
          "name": "_favoriteNumber",
          "type": "uint256"
        },
        {
          "internalType": "string",
          "name": "_name",
          "type": "string"
        }
      ],
      "name": "addPeople",
      "outputs": [],
      "stateMutability": "nonpayable",
      "type": "function"
    },
    {
      "inputs": [],
      "name": "favoriteNumber",
      "outputs": [
        {
          "internalType": "uint256",
          "name": "",
          "type": "uint256"
        }
      ],
      "stateMutability": "view",
      "type": "function"
    },
    {
      "inputs": [
        {
          "internalType": "string",
          "name": "",
          "type": "string"
        }
      ],
      "name": "nameToFavoriteNumber",
      "outputs": [
        {
          "internalType": "uint256",
          "name": "",
          "type": "uint256"
        }
      ],
      "stateMutability": "view",
      "type": "function"
    },
    {
      "inputs": [
        {
          "internalType": "uint256",
          "name": "",
          "type": "uint256"
        }
      ],
      "name": "peopleList",
      "outputs": [
        {
          "internalType": "uint256",
          "name": "favoriteNumber",
          "type": "uint256"
        },
        {
          "internalType": "string",
          "name": "name",
          "type": "string"
        }
      ],
      "stateMutability": "view",
      "type": "function"
    },
    {
      "inputs": [],
      "name": "retrieve",
      "outputs": [
        {
          "internalType": "uint256",
          "name": "",
          "type": "uint256"
        }
      ],
      "stateMutability": "view",
      "type": "function"
    },
    {
      "inputs": [
        {
          "internalType": "uint256",
          "name": "newFavoriteNumber",
          "type": "uint256"
        }
      ],
      "name": "store",
      "outputs": [],
      "stateMutability": "nonpayable",
      "type": "function"
    }
  ],
  "bytecode": "0x608060405234801561001057600080fd5b50610a22806100206000396000f3fe608060405234801561001057600080fd5b50600436106100625760003560e01c80632e64cec11461006757806339d515e214610085578063471f7cdf146100b65780636057361d146100d45780638bab8dd5146100f05780638f7d59b814610120575b600080fd5b61006f61013c565b60405161007c9190610399565b60405180910390f35b61009f600480360381019061009a91906103f4565b610182565b6040516100ad9291906104b1565b60405180910390f35b6100be61023e565b6040516100cb9190610399565b60405180910390f35b6100ee60048036038101906100e991906103f4565b610244565b005b61010a60048036038101906101059190610616565b610276565b6040516101179190610399565b60405180910390f35b61013a6004803603810190610135919061065f565b6102a4565b005b60006101526748b783f4b7ac239460c01b61037d565b6101666763b44e736ce5605760c01b61037d565b61017a67fd109e0816d032d260c01b61037d565b600054905090565b6002818154811061019257600080fd5b90600052602060002090600202016000915090508060000154908060010180546101bb906106ea565b80601f01602080910402602001604051908101604052809291908181526020018280546101e7906106ea565b80156102345780601f1061020957610100808354040283529160200191610234565b820191906000526020600020905b81548152906001019060200180831161021757829003601f168201915b5050505050905082565b60005481565b610258674a9026e19b3b890860c01b61037d565b61026c6704b2ccfd66e8cdac60c01b61037d565b8060008190555050565b6001818051602081018201805184825260208301602085012081835280955050505050506000915090505481565b6102b8677e978f7e502d85ca60c01b61037d565b6102cc676cb10551b656a1ce60c01b61037d565b6102e06780995a99745782dc60c01b61037d565b6002604051806040016040528084815260200183815250908060018154018082558091505060019003906000526020600020906002020160009091909190915060008201518160000155602082015181600101908161033f91906108c7565b50505061035667261775411898679b60c01b61037d565b8160018260405161036791906109d5565b9081526020016040518091039020819055505050565b50565b6000819050919050565b61039381610380565b82525050565b60006020820190506103ae600083018461038a565b92915050565b6000604051905090565b600080fd5b600080fd5b6103d181610380565b81146103dc57600080fd5b50565b6000813590506103ee816103c8565b92915050565b60006020828403121561040a576104096103be565b5b6000610418848285016103df565b91505092915050565b600081519050919050565b600082825260208201905092915050565b60005b8381101561045b578082015181840152602081019050610440565b60008484015250505050565b6000601f19601f8301169050919050565b600061048382610421565b61048d818561042c565b935061049d81856020860161043d565b6104a681610467565b840191505092915050565b60006040820190506104c6600083018561038a565b81810360208301526104d88184610478565b90509392505050565b600080fd5b600080fd5b7f4e487b7100000000000000000000000000000000000000000000000000000000600052604160045260246000fd5b61052382610467565b810181811067ffffffffffffffff82111715610542576105416104eb565b5b80604052505050565b60006105556103b4565b9050610561828261051a565b919050565b600067ffffffffffffffff821115610581576105806104eb565b5b61058a82610467565b9050602081019050919050565b82818337600083830152505050565b60006105b96105b484610566565b61054b565b9050828152602081018484840111156105d5576105d46104e6565b5b6105e0848285610597565b509392505050565b600082601f8301126105fd576105fc6104e1565b5b813561060d8482602086016105a6565b91505092915050565b60006020828403121561062c5761062b6103be565b5b600082013567ffffffffffffffff81111561064a576106496103c3565b5b610656848285016105e8565b91505092915050565b60008060408385031215610676576106756103be565b5b6000610684858286016103df565b925050602083013567ffffffffffffffff8111156106a5576106a46103c3565b5b6106b1858286016105e8565b9150509250929050565b7f4e487b7100000000000000000000000000000000000000000000000000000000600052602260045260246000fd5b6000600282049050600182168061070257607f821691505b602082108103610715576107146106bb565b5b50919050565b60008190508160005260206000209050919050565b60006020601f8301049050919050565b600082821b905092915050565b60006008830261077d7fffffffffffffffffffffffffffffffffffffffffffffffffffffffffffffffff82610740565b6107878683610740565b95508019841693508086168417925050509392505050565b6000819050919050565b60006107c46107bf6107ba84610380565b61079f565b610380565b9050919050565b6000819050919050565b6107de836107a9565b6107f26107ea826107cb565b84845461074d565b825550505050565b600090565b6108076107fa565b6108128184846107d5565b505050565b5b818110156108365761082b6000826107ff565b600181019050610818565b5050565b601f82111561087b5761084c8161071b565b61085584610730565b81016020851015610864578190505b61087861087085610730565b830182610817565b50505b505050565b600082821c905092915050565b600061089e60001984600802610880565b1980831691505092915050565b60006108b7838361088d565b9150826002028217905092915050565b6108d082610421565b67ffffffffffffffff8111156108e9576108e86104eb565b5b6108f382546106ea565b6108fe82828561083a565b600060209050601f831160018114610931576000841561091f578287015190505b61092985826108ab565b865550610991565b601f19841661093f8661071b565b60005b8281101561096757848901518255600182019150602085019450602081019050610942565b868310156109845784890151610980601f89168261088d565b8355505b6001600288020188555050505b505050505050565b600081905092915050565b60006109af82610421565b6109b98185610999565b93506109c981856020860161043d565b80840191505092915050565b60006109e182846109a4565b91508190509291505056fea2646970667358221220320277b5a6c57904beb7db5485af5727ab76b5076a0c93bc02bee4252bd4d0bd64736f6c63430008130033",
  "linkReferences": {},
  "deployedLinkReferences": {}
}