{
  "_format": "hh-sol-artifact-1",
  "contractName": "SimpleStorage",
  "sourceName": "contracts/SimpleStorage.sol",
  "abi": [
    {
      "inputs": [
        {
          "internalType": "uint256",
          "name": "_favoriteNumber",
          "type": "uint256"
        },
        {
          "internalType": "string",
          "name": "_name",
          "type": "string"
        }
      ],
      "name": "addPeople",
      "outputs": [],
      "stateMutability": "nonpayable",
      "type": "function"
    },
    {
      "inputs": [],
      "name": "favoriteNumber",
      "outputs": [
        {
          "internalType": "uint256",
          "name": "",
          "type": "uint256"
        }
      ],
      "stateMutability": "view",
      "type": "function"
    },
    {
      "inputs": [
        {
          "internalType": "uint256",
          "name": "index",
          "type": "uint256"
        }
      ],
      "name": "getPerson",
      "outputs": [
        {
          "internalType": "string",
          "name": "",
          "type": "string"
        },
        {
          "internalType": "uint256",
          "name": "",
          "type": "uint256"
        }
      ],
      "stateMutability": "view",
      "type": "function"
    },
    {
      "inputs": [
        {
          "internalType": "string",
          "name": "",
          "type": "string"
        }
      ],
      "name": "nameToFavoriteNumber",
      "outputs": [
        {
          "internalType": "uint256",
          "name": "",
          "type": "uint256"
        }
      ],
      "stateMutability": "view",
      "type": "function"
    },
    {
      "inputs": [
        {
          "internalType": "uint256",
          "name": "",
          "type": "uint256"
        }
      ],
      "name": "peopleList",
      "outputs": [
        {
          "internalType": "uint256",
          "name": "favoriteNumber",
          "type": "uint256"
        },
        {
          "internalType": "string",
          "name": "name",
          "type": "string"
        }
      ],
      "stateMutability": "view",
      "type": "function"
    },
    {
      "inputs": [],
      "name": "retrieve",
      "outputs": [
        {
          "internalType": "uint256",
          "name": "",
          "type": "uint256"
        }
      ],
      "stateMutability": "view",
      "type": "function"
    },
    {
      "inputs": [
        {
          "internalType": "uint256",
          "name": "newFavoriteNumber",
          "type": "uint256"
        }
      ],
      "name": "store",
      "outputs": [],
      "stateMutability": "nonpayable",
      "type": "function"
    }
  ],
  "bytecode": "0x608060405234801561001057600080fd5b50610add806100206000396000f3fe608060405234801561001057600080fd5b506004361061007d5760003560e01c8063471f7cdf1161005b578063471f7cdf146101025780636057361d146101205780638bab8dd51461013c5780638f7d59b81461016c5761007d565b8063246982c4146100825780632e64cec1146100b357806339d515e2146100d1575b600080fd5b61009c60048036038101906100979190610426565b610188565b6040516100aa9291906104f2565b60405180910390f35b6100bb610250565b6040516100c89190610522565b60405180910390f35b6100eb60048036038101906100e69190610426565b610259565b6040516100f992919061053d565b60405180910390f35b61010a610315565b6040516101179190610522565b60405180910390f35b61013a60048036038101906101359190610426565b61031b565b005b610156600480360381019061015191906106a2565b610325565b6040516101639190610522565b60405180910390f35b610186600480360381019061018191906106eb565b610353565b005b6060600080600284815481106101a1576101a0610747565b5b906000526020600020906002020190508060010181600001548180546101c6906107a5565b80601f01602080910402602001604051908101604052809291908181526020018280546101f2906107a5565b801561023f5780601f106102145761010080835404028352916020019161023f565b820191906000526020600020905b81548152906001019060200180831161022257829003601f168201915b505050505091509250925050915091565b60008054905090565b6002818154811061026957600080fd5b9060005260206000209060020201600091509050806000015490806001018054610292906107a5565b80601f01602080910402602001604051908101604052809291908181526020018280546102be906107a5565b801561030b5780601f106102e05761010080835404028352916020019161030b565b820191906000526020600020905b8154815290600101906020018083116102ee57829003601f168201915b5050505050905082565b60005481565b8060008190555050565b6001818051602081018201805184825260208301602085012081835280955050505050506000915090505481565b600260405180604001604052808481526020018381525090806001815401808255809150506001900390600052602060002090600202016000909190919091506000820151816000015560208201518160010190816103b29190610982565b505050816001826040516103c69190610a90565b9081526020016040518091039020819055505050565b6000604051905090565b600080fd5b600080fd5b6000819050919050565b610403816103f0565b811461040e57600080fd5b50565b600081359050610420816103fa565b92915050565b60006020828403121561043c5761043b6103e6565b5b600061044a84828501610411565b91505092915050565b600081519050919050565b600082825260208201905092915050565b60005b8381101561048d578082015181840152602081019050610472565b60008484015250505050565b6000601f19601f8301169050919050565b60006104b582610453565b6104bf818561045e565b93506104cf81856020860161046f565b6104d881610499565b840191505092915050565b6104ec816103f0565b82525050565b6000604082019050818103600083015261050c81856104aa565b905061051b60208301846104e3565b9392505050565b600060208201905061053760008301846104e3565b92915050565b600060408201905061055260008301856104e3565b818103602083015261056481846104aa565b90509392505050565b600080fd5b600080fd5b7f4e487b7100000000000000000000000000000000000000000000000000000000600052604160045260246000fd5b6105af82610499565b810181811067ffffffffffffffff821117156105ce576105cd610577565b5b80604052505050565b60006105e16103dc565b90506105ed82826105a6565b919050565b600067ffffffffffffffff82111561060d5761060c610577565b5b61061682610499565b9050602081019050919050565b82818337600083830152505050565b6000610645610640846105f2565b6105d7565b90508281526020810184848401111561066157610660610572565b5b61066c848285610623565b509392505050565b600082601f8301126106895761068861056d565b5b8135610699848260208601610632565b91505092915050565b6000602082840312156106b8576106b76103e6565b5b600082013567ffffffffffffffff8111156106d6576106d56103eb565b5b6106e284828501610674565b91505092915050565b60008060408385031215610702576107016103e6565b5b600061071085828601610411565b925050602083013567ffffffffffffffff811115610731576107306103eb565b5b61073d85828601610674565b9150509250929050565b7f4e487b7100000000000000000000000000000000000000000000000000000000600052603260045260246000fd5b7f4e487b7100000000000000000000000000000000000000000000000000000000600052602260045260246000fd5b600060028204905060018216806107bd57607f821691505b6020821081036107d0576107cf610776565b5b50919050565b60008190508160005260206000209050919050565b60006020601f8301049050919050565b600082821b905092915050565b6000600883026108387fffffffffffffffffffffffffffffffffffffffffffffffffffffffffffffffff826107fb565b61084286836107fb565b95508019841693508086168417925050509392505050565b6000819050919050565b600061087f61087a610875846103f0565b61085a565b6103f0565b9050919050565b6000819050919050565b61089983610864565b6108ad6108a582610886565b848454610808565b825550505050565b600090565b6108c26108b5565b6108cd818484610890565b505050565b5b818110156108f1576108e66000826108ba565b6001810190506108d3565b5050565b601f82111561093657610907816107d6565b610910846107eb565b8101602085101561091f578190505b61093361092b856107eb565b8301826108d2565b50505b505050565b600082821c905092915050565b60006109596000198460080261093b565b1980831691505092915050565b60006109728383610948565b9150826002028217905092915050565b61098b82610453565b67ffffffffffffffff8111156109a4576109a3610577565b5b6109ae82546107a5565b6109b98282856108f5565b600060209050601f8311600181146109ec57600084156109da578287015190505b6109e48582610966565b865550610a4c565b601f1984166109fa866107d6565b60005b82811015610a22578489015182556001820191506020850194506020810190506109fd565b86831015610a3f5784890151610a3b601f891682610948565b8355505b6001600288020188555050505b505050505050565b600081905092915050565b6000610a6a82610453565b610a748185610a54565b9350610a8481856020860161046f565b80840191505092915050565b6000610a9c8284610a5f565b91508190509291505056fea2646970667358221220b4d3b8da5c5f38a177d4dead37cba26df4fcf04c57f8ff770d71f65d48ef37e364736f6c63430008130033",
  "linkReferences": {},
  "deployedLinkReferences": {}
}